:020000040000FA
:10000000831681115928831203132808A9013F3C44
:10001000031C17282808A3001830A3070030031872
:10002000013E8A008312031328081820A900080043
:100030008207F33494349434E43494349434943410
:10004000E334003489348A348A34FA348A348A3482
:1000500089343C34A134A134A134A134A134A13475
:1000600021340034CF342834283428342834283438
:10007000C834CC342A3429342934293429342A3454
:100080002C340034A23422343E342234223414344A
:1000900008343134483449344934493449344934D2
:1000A00031340034A83400340034003400340034D7
:1000B000003483120313A301A401A501A601A80122
:1000C000A901AA01AB01AC01AD01AF01B001B101C1
:1000D000B201B301B401B50185012030831685005A
:1000E000073083129F008601003083168600073098
:1000F0008312B5008312031385103308003A031DE1
:10010000C0280510051183120313B101B201340890
:100110003307B10003188D288F28B20A90280000F9
:100120003108A80003202908B0003508003A031D53
:10013000D32830189C289E282F149F282F10831214
:1001400003132F18A428A6280617A7280613861716
:1001500086133508003A031D1E290730B500340800
:100160003C3A031D2629B4018515851185140130FB
:1001700032213308033A031D2D29B3017A287A2846
:100180003308013A031DC7280514051583283308D1
:10019000023A031DCE280510051583288312031388
:1001A0000514051183283508013A031DDE28B0180F
:1001B000DA28DC282F14DD282F109F283508023A72
:1001C000031DE9283019E528E7282F14E8282F1007
:1001D0009F283508033A031DF428B019F028F228A7
:1001E0002F14F3282F109F283508043A031DFF28E9
:1001F000301AFB28FD282F14FE282F109F283508C1
:10020000053A031D0A29B01A062908292F140929BD
:100210002F109F283508063A031D1529301B112978
:1002200013292F1414292F109F2883120313B01B96
:100230001A291C292F141D292F109F2883120313FC
:100240003508031DB503350883288328043083123D
:1002500003133407B4008328832883120313B30ADB
:100260007A287A2883120313AA0036290000000096
:10027000000000000000000000001630AB0000008D
:100280007030AC000000AC0B4229AB0B3F290000E2
:0A029000AA0B36298312031308009D
:02400E00023F6F
:10420000FF00FF00FF00FF00FF00FF00FF00FF00B6
:10421000FF00FF00FF00FF00FF00FF00FF00FF00A6
:10422000FF00FF00FF00FF00FF00FF00FF00FF0096
:10423000FF00FF00FF00FF00FF00FF00FF00FF0086
:10424000FF00FF00FF00FF00FF00FF00FF00FF0076
:10425000FF00FF00FF00FF00FF00FF00FF00FF0066
:10426000FF00FF00FF00FF00FF00FF00FF00FF0056
:10427000FF00FF00FF00FF00FF00FF00FF00FF0046
:10428000FF00FF00FF00FF00FF00FF00FF00FF0036
:10429000FF00FF00FF00FF00FF00FF00FF00FF0026
:1042A000FF00FF00FF00FF00FF00FF00FF00FF0016
:1042B000FF00FF00FF00FF00FF00FF00FF00FF0006
:1042C000FF00FF00FF00FF00FF00FF00FF00FF00F6
:1042D000FF00FF00FF00FF00FF00FF00FF00FF00E6
:1042E000FF00FF00FF00FF00FF00FF00FF00FF00D6
:1042F000FF00FF00FF00FF00FF00FF00FF00FF00C6
:00000001FF
